:0600000000F013EF00F018
:060008002F82E8EF02F078
:100018002F80E0CF01F001C0E0FF2F901000D1EF5A
:1000280002F00E6E000E126E000E116EE30EC21676
:100038003CEF00F0C25065EF00F0C28465EF00F0BD
:10004800C28665EF00F00C0EC21265EF00F0C288A0
:1000580065EF00F0140EC21265EF00F0180EC21220
:1000680065EF00F0000E0B6E000E0A6EA6EF00F0B2
:100078000E500C6E0D6A0D50000AD8B446EF00F011
:1000880036EF00F00C50000AD8B41EEF00F0020A58
:10009800D8B421EF00F0060AD8B424EF00F01C0A07
:1000A800D8B427EF00F0300AD8B42BEF00F0180AC4
:1000B800D8B42EEF00F0080AD8B432EF00F036EFCB
:1000C80000F00D0E0C6EFC0EE82EFED70C2EFCD7A1
:1000D800C282C2B272EF00F074EF00F06DEF00F070
:1000E800C4500D6E0C6AC3500C240F6E000E0D2008
:1000F800106E1A0E0C6EF80EE82EFED70C2EFCD7DA
:1001080000D0C282C2B28BEF00F08DEF00F086EF14
:1001180000F0C4500D6E0C6AC3500C24116E000E12
:100128000D20126E11500F24026E12501020036E13
:10013800000E056E020E046E0BEC01F002C00AF010
:1001480003C00BF01200000E246E000E236E000E8A
:100158001E6E000E1D6E000E206E000E1F6E809823
:100168008198809C380EDEEC02F0280E15EC00F029
:100178000AC021F00BC022F0300E15EC00F00AC0C6
:1001880023F00BC024F024BED3EF00F0245009E183
:100198009C0E235CD8A0D3EF00F0D5EF00F0D9EF88
:1001A80000F0BDEC02F009EF01F022BEE7EF00F02D
:1001B800225007E10A0E215CD8B0E5EF00F0E7EF26
:1001C80000F0EBEF00F0C1EC01F0B3EF00F02E040B
:1001D800D8A4F1EF00F0F3EF00F0F7EF00F011EC26
:1001E80002F0B3EF00F02D04D8A4FDEF00F0FFEF0C
:1001F80000F003EF01F05BEC02F0B3EF00F0000E4B
:100208002D6E000E2E6EB3EF00F013EF00F0000E0F
:10021800076E05BE14EF01F012EF01F01AEF01F0BE
:10022800046C051ED8B0052A010E076E03BE21EF27
:1002380001F01FEF01F027EF01F0026C031ED8B0A8
:10024800032A010E071A000E096E000E086E0450EC
:100258000510D8B432EF01F034EF01F05CEF01F093
:10026800010E066E3CEF01F0D89004360536062ADA
:1002780005AE41EF01F043EF01F038EF01F0D890FF
:10028800083609360450025C05500358D8A04FEFD1
:1002980001F051EF01F056EF01F00450025E0550F5
:1002A800035A0880D89005320432062E43EF01F035
:1002B8000750D8B462EF01F064EF01F068EF01F085
:1002C800086C091ED8B0092A08C002F009C003F05A
:1002D80012001C0EDEEC02F0040E15EC00F00AC051
:1002E8002BF00BC02CF0180E15EC00F00AC029F00A
:1002F8000BC02AF02CBE8AEF01F02C5009E10B0E3E
:100308002B5CD8A08AEF01F08CEF01F09EEF01F092
:100318002CBE9AEF01F02C5007E10A0E2B5CD8B0E6
:1003280098EF01F09AEF01F09EEF01F0010E2E6EAA
:10033800C0EF01F02CBEACEF01F02C5007E10A0E23
:100348002B5CD8B0AAEF01F0ACEF01F0BEEF01F0E2
:100358002CBEB8EF01F02C5009E10B0E2B5CD8A095
:10036800B8EF01F0BAEF01F0BEEF01F0010E2D6E0B
:10037800C0EF01F0000E2D6E1200808C820E196EF7
:10038800DE0EE82EFED7192EFCD7A5EC02F013C01E
:100398001BF014C01CF01CBEDDEF01F01C5007E17F
:1003A800050E1B5CD8B0DBEF01F0DDEF01F0F7EFD5
:1003B80001F0808C6DEC01F0410E196EEE0EE82E06
:1003C800FED7192EFCD700D0809C020E1A6E040EA0
:1003D800196EBA0EE82EFED7192EFCD71A2EFAD7A8
:1003E80000D010EF02F0808C6DEC01F0820E196ED7
:1003F800DE0EE82EFED7192EFCD7809C030E1A6E4F
:10040800080E196E770EE82EFED7192EFCD71A2E75
:10041800FAD700F0F5EF01F012008088020E036EA3
:10042800860E026E990EE82EFED7022EFCD7032EFA
:10043800FAD700F08098030E036E8A0E026E560EED
:10044800E82EFED7022EFCD7032EFAD78088020E9C
:10045800036E860E026E990EE82EFED7022EFCD78A
:10046800032EFAD700F08098030E036E8A0E026EF0
:10047800560EE82EFED7022EFCD7032EFAD7808818
:10048800020E036E860E026E990EE82EFED7022E1D
:10049800FCD7032EFAD700F08098820E026EDE0E8B
:1004A800E82EFED7022EFCD7000E2E6E1200818891
:1004B800020E036E860E026E990EE82EFED7022EED
:1004C800FCD7032EFAD700F08198030E036E8A0E2C
:1004D800026E560EE82EFED7022EFCD7032EFAD750
:1004E8008188020E036E860E026E990EE82EFED7E4
:1004F800022EFCD7032EFAD700F08198030E036E64
:100508008A0E026E560EE82EFED7022EFCD7032E58
:10051800FAD78188020E036E860E026E990EE82EB7
:10052800FED7022EFCD7032EFAD700F08198820E50
:10053800026EDE0EE82EFED7022EFCD7000E2D6EC0
:100548001200020EDEEC02F0000E15EC00F00AC0FC
:1005580015F00BC016F0020E15EC00F00AC017F0EB
:100568000BC018F01750155C136E18501658146EFF
:1005780012009C0E026ED70EE82EFED7022EFCD774
:1005880000F0030E036E8A0E026E560EE82EFED79A
:10059800022EFCD7032EFAD7120000EE25F00A0E21
:1005A800EE6AE806FDE12F902F92000EF86E00012A
:1005B800A7EF00F0026E000EC16E000EC26E025070
:0C05C800C212070EC06E12002F9211002C
:020000040020DA
:08000000FFFFFFFFFFFFFFFF00
:020000040030CA
:0E000000FFC80F1EFF0085FF03C003E0034092
:00000001FF
