:0600000000F013EF00F018
:060008002B8233EF03F030
:100018002B80E0CF01F001C0E0FF2B9010001DEF16
:1000280003F00E6E000E126E000E116E000EC26E00
:100038003FEF00F0C28068EF00F0050EC21268EFD3
:1000480000F0090EC21268EF00F00D0EC21268EF40
:1000580000F0110EC21268EF00F0150EC21268EF20
:1000680000F0190EC21268EF00F0000E0B6E000EC1
:100078000A6EA9EF00F00E500C6E0D6A0D50000AC2
:10008800D8B449EF00F039EF00F00C50010AD8B4A9
:100098001EEF00F0030AD8B421EF00F0060AD8B426
:1000A80025EF00F01C0AD8B429EF00F0300AD8B4C4
:1000B8002DEF00F0180AD8B431EF00F0080AD8B4D0
:1000C80035EF00F039EF00F01A0E0C6EF80EE82E3E
:1000D800FED70C2EFCD700D0C282C2B276EF00F059
:1000E80078EF00F071EF00F0C4500D6E0C6AC35049
:1000F8000C240F6E000E0D20106E340E0C6EF20ED6
:10010800E82EFED70C2EFCD7C282C2B28EEF00F0CA
:1001180090EF00F089EF00F0C4500D6E0C6AC350E8
:100128000C24116E000E0D20126E11500F24026E59
:1001380012501020036E000E056E020E046EDCECE9
:1001480001F002C00AF003C00BF012008186020E13
:100158001A6E040E196EBA0EE82EFED7192EFCD7A9
:100168001A2EFAD700D008EC03F013C01BF014C005
:100178001CF01CBECBEF00F0900E1B5C010E1C584F
:10018800D8B0C9EF00F0CBEF00F0EDEF00F08186BA
:100198001A0E196EF80EE82EFED7192EFCD700D0CD
:1001A8003EEC02F01A0E196EF80EE82EFED7192E44
:1001B800FCD700D08196020E1A6E040E196EBA0E84
:1001C800E82EFED7192EFCD71A2EFAD700D015EF35
:1001D80001F08186020E1A6E040E196EBA0EE82E10
:1001E800FED7192EFCD71A2EFAD700D03EEC02F013
:1001F800020E1A6E040E196EBA0EE82EFED7192ECC
:10020800FCD71A2EFAD700D08196050E1A6E0F0E5B
:10021800196EF10EE82EFED7192EFCD71A2EFAD732
:1002280000F01200819681908084040E036E0C0EFB
:10023800026E340EE82EFED7022EFCD7032EFAD714
:100248008094060E036E130E026EAE0EE82EFED7D5
:10025800022EFCD7032EFAD780B835EF01F037EF1E
:1002680001F039EF01F078EF01F08084040E036E9D
:100278000C0E026E340EE82EFED7022EFCD7032E8B
:10028800FAD78094060E036E130E026EAE0EE82E99
:10029800FED7022EFCD7032EFAD780B856EF01F00E
:1002A80058EF01F05AEF01F078EF01F08084040E66
:1002B800036E0C0E026E340EE82EFED7022EFCD70B
:1002C800032EFAD780948190020E036E040E026EFC
:1002D800BA0EE82EFED7022EFCD7032EFAD700D08E
:1002E800000E2A6E000E296E12008196809481807D
:1002F800040E036E0C0E026E340EE82EFED7022E8C
:10030800FCD7032EFAD78190060E036E130E026EE9
:10031800AE0EE82EFED7022EFCD7032EFAD780B8F1
:1003280098EF01F09AEF01F09CEF01F0DBEF01F09C
:100338008180040E036E0C0E026E340EE82EFED77A
:10034800022EFCD7032EFAD78190060E036E130EE9
:10035800026EAE0EE82EFED7022EFCD7032EFAD779
:1003680080B8B9EF01F0BBEF01F0BDEF01F0DBEFB2
:1003780001F08180040E036E0C0E026E340EE82E1E
:10038800FED7022EFCD7032EFAD781908094020E56
:10039800036E040E026EBA0EE82EFED7022EFCD7AC
:1003A800032EFAD700D0000E2A6E000E296E120016
:1003B800000E076E05BEE5EF01F0E3EF01F0EBEF8D
:1003C80001F0046C051ED8B0052A010E076E03BEA5
:1003D800F2EF01F0F0EF01F0F8EF01F0026C031E0C
:1003E800D8B0032A010E071A000E096E000E086E17
:1003F80004500510D8B403EF02F005EF02F02DEF1A
:1004080002F0010E066E0DEF02F0D89004360536A4
:10041800062A05AE12EF02F014EF02F009EF02F01F
:10042800D890083609360450025C05500358D8A005
:1004380020EF02F022EF02F027EF02F00450025EF4
:100448000550035A0880D89005320432062E14EF5E
:1004580002F00750D8B433EF02F035EF02F039EF6D
:1004680002F0086C091ED8B0092A08C002F009C0B9
:1004780003F01200000E286E000E276E000E266E86
:10048800000E256E180E15EC00F00AC027F00BC000
:1004980028F0300E15EC00F00AC025F00BC026F04D
:1004A80028BE60EF02F0285009E1650E275CD8A04D
:1004B80060EF02F062EF02F076EF02F026BE70EF16
:1004C80002F0265007E1050E255CD8B06EEF02F069
:1004D80070EF02F076EF02F0000E2A6E010E296E20
:1004E8009CEF02F026BE82EF02F0265009E1650E6D
:1004F800255CD8A082EF02F084EF02F098EF02F0BA
:1005080028BE92EF02F0285007E1050E275CD8B00C
:1005180090EF02F092EF02F098EF02F0000E2A6ED0
:10052800020E296E9CEF02F0000E2A6E000E296E54
:1005380012002AEC03F0809481908196380E15EC15
:1005480000F00AC01DF00BC01EF01EBEB5EF02F091
:100558001E5009E1650E1D5CD8A0B5EF02F0B7EF9B
:1005680002F0BBEF02F0ECEC02F0EAEF02F080B828
:10057800C0EF02F0C2EF02F0C6EF02F0AAEC00F002
:100588009FEF02F029042A10D8A4CDEF02F0CFEF94
:1005980002F0D3EF02F016EC01F09FEF02F0020E2A
:1005A80029182A10D8A4DBEF02F0DDEF02F0E1EF02
:1005B80002F079EC01F09FEF02F08094819081962F
:1005C800000E2A6E000E296E9FEF02F013EF00F066
:1005D80081808084020E036E380E026EAD0EE82E06
:1005E800FED7022EFCD7032EFAD700F08190809414
:1005F800060E036E130E026EAE0EE82EFED7022E06
:10060800FCD7032EFAD71200020E15EC00F00AC030
:1006180015F00BC016F0010E15EC00F00AC017F02B
:100628000BC018F01750155C136E18501658146E3E
:10063800120000EE1FF00C0EEE6AE806FDE12B90AA
:100648002B92000EF86E00019DEF02F0140EC16EA1
:10065800FB0E926EB60E936E0F0EC06E12002B92AA
:0206680011007F
:100AE60000392626262651778C7C85B2DADADADAC0
:100AF600DAB6856A5A39302C51615651617E93B8FF
:100B0600D7DACEA273463B323950666A5D5D5E85A2
:100B1600AFDADADABF854626262626395A74877C66
:100B260074747F7F7FA6C8DABF9B68564D6FA0DAC4
:100B3600DADADAC97F5A37375E7F9B825E322C2635
:100B46003968B2DADADACCA67961667994948C736C
:100B560050302629488EC8DADABD906650545D6852
:100B66006C736A706A6C667987897F73583B263224
:100B76004B6C7E7F7F7F7F7F7F7F90A0A69D7C745E
:100B86009BDADADADAC18C7F7C51392C4254485030
:100B96003B2D295090CEDADADADAB68C7C6A5A54D2
:100BA600666C583E2926263977BADADADAC89D7095
:100BB6005E587C7F8579735A39262D426189A289D0
:100BC6006A5D5E5450616C70747E7F7F8582A2ADD3
:100BD600BF907F6F5A506CD3DADADADAB67F7F6C61
:100BE600615A51484D5D462626265A8CD0DADADA05
:100BF600DAA693735A5A7C948C8C8C735D5E8797B5
:100C06008C745D4D2C2C3F6A8293B2BDA0735650F6
:100C160042424B6F857F79686A615D616A70747460
:100C26007C7F7F7F7F7F7F7F7F85B2DADADADAB6F5
:100C36007F7F7F7F6A39262626262826263F6C99BF
:100C4600C8DADADADAC18C7F7F74686A737F66463F
:100C5600262626265A8EC5DADADAD39B73585056DC
:100C66005A68634D37292C3946617C9BA6A2907C35
:100C7600736A6A747C85826F5A546C7F7F7F7F7F2C
:100C86007F85C8DADADADAA67F7F7F7F7F5A3E264B
:100C960026262626264B7497CCDADADADADAB67FF7
:100CA6007F7F7E6661686F583E3937303E638CA41D
:100CB600B8CCCCB3948789878577745E462626267A
:100CC6002635568597A2A69D8C77746F797F7F7C93
:100CD60068685A6C737F7F7F7F7F85C8DADADADAD5
:100CE600B67F7F7F7F7C563E2C3729262626294BCA
:100CF6006CADD3DADADADACCA08C7C7373858E89A4
:100D06006C5A2C262626426C93AFC4C5BAA69B897C
:100D16007E8590997F74563F2626263E5E778C9375
:100D260090877E7973707C9393796658565A6C7F58
:100D36007F7F7F7F7F97DADADADADAA07F7F7F7FBD
:100D46007F66502626262626263F486C9BC8DADA7A
:100D5600DADADAC1A28C7E6A5458707C5E563E2975
:100D660026263E5887A9CEDADAC5B2A08E777F79D5
:100D76006F5D56392D263B3F636F8E97A9949489F4
:100D86007F7070747777796F685D5A61737F7F7F44
:100D960085DADADADADAB67F7F7F7F705650545E0C
:100DA6004426262626264B7E9BC8DADADADAD7B21E
:100DB600A29790857F7F7C664426262626264D743C
:100DC60097ADBAC1B6C5BAC1AFA497857463483B9F
:100DD6002C303748586F77878E8E8E85877E7C7C41
:100DE6008294949073684D484861749BDADADADA33
:100DF600DAB67F7F7F7C5A442C39504846292C2608
:100E0600294B7F7F7FB2DADADADADAC4AF9D908CCB
:100E160085857F735A30262626264B6387A4C1B65E
:100E2600C9BDC8A6A6949782776A5D54463F373EE9
:100E360044565E79899799978E938C897E7F8285B1
:100E46007F735D5648515D87BFDADADADADAB68C37
:100E56007F6C503937444D4D48423729263F617CD7
:100E66007F85AFDADADADADAC5B6ABA097908C7F8F
:100E7600745E442826262C48667FA2ABB6B2B2A082
:100E860093897E7F77797F897E7061504646565E6C
:100E96006F8797A4A2A49993827E736F6A68615143
:100EA600513E4D5077A2C4DADADADAC9A4855D4636
:100EB6003B374256636F6A5E513F3E4B687F85A65D
:100EC600C8DADADADADAD7CCA28C7F7F7F7E68508E
:100ED60030262D3046507487939094939D9BA29410
:100EE600978E9D97A0897C665A58585D63707C9052
:100EF60094948C7C68565061566361776F5D484B5D
:100F060061749BB2DADADADADAA67F5D48504861B4
:100F1600778E93745E4B423F303F507797ADCED776
:100F2600D7CCBFC1ABADA6ADA0A29389705D443E40
:100F3600353B3E586A798E94939497948C7F8E8C29
:100F46009B9B9B97827468635D5154616C7C6C704B
:100F560063615D617374746C615D5A6A747FABC45E
:100F6600DADADAD5A27C6C686166778E9489827744
:100F760068564844545E5E7C8EA2A2A099949390D3
:100F86009DADC1C1CCC5B6997E66503B373E56680D
:100F9600777C7C7F7C635D5066688993A6B2BAAF26
:100FA6009B897E746C6F737C7C828287857E665E8D
:100FB60056635E70777E6F5E544D484B617494B293
:100FC600DADADADABD9985747070909BADA6A490D2
:100FD60077563E30353E54687F90908C7F7F7E7F7B
:100FE6008790B2BAC8C5B8AD8C7E63545A616A6F31
:100FF6006F736C5E504B56636A829DB2C1BFB29BE3
:1010060089776A637077878C908779705E63637778
:101016007E85898E8E827E6C685D5A5E667370747C
:101026007F87878E979B9D979D9BB2ABAFA29D9323
:101036008989877E77686C6A70706F70666A6A7075
:101046007F7C8E85A49BA68E8C8987897F827E7401
:101056006F6A5D666C79706F747F85878C8C877C10
:101066007F8594909382827C7F707F737E747C7977
:101076007F777F73857C857F85827C827E857E797E
:1010860077797F7C737370777F7F8C82908793905C
:101096008E878597939B8C9482877F827770777EE5
:1010A6007C7F7E7C797F85828587897F827F7C773E
:1010B600746A7E7E7F70747E7E7C7E7E777E7E8C7A
:1010C60082877E857E7F7E7F85827E7E828279771D
:1010D60077857F7F7C7F857F7C79827F827F897F12
:1010E6007E7F89827F7C828287857F7F7F7E7F7FEE
:1010F600827F8C7C79707F87858279797F828282F4
:101106007F7F7E8590857F747F8E8C7E85738E7CB7
:101116007F747F8E8E7F7370748E7F8C7F7F827FCD
:10112600827E747F747F7F7C7E7E827F7F7F7E7CE3
:101136007C7C7F798593877C7385877F8E8282739B
:101146007F7E7F7F7F7E7E82827E7C8282827F829E
:101156007E7E7E857F7F7F827F7E7F8E7F79738294
:10116600877F7E7E8E7F7F737F8E7F8E737E737F7B
:10117600827F8E827F707C82857E7E8E938E7F7F3D
:10118600747E738C737F747E7F7F827F7F7E7F7E8B
:10119600857F7F7E7E7F82827F8C7E8274827E7E4A
:1011A6007F7E7F7E7F82857E7E7F827E7F7E827F40
:1011B600857E7C827F857C827C857C827F877E7E25
:1011C6007C7F827F827C857E7F777F7F858282821D
:1011D6007C7F82827F7F827F7F82828C8C7E73740B
:1011E6007F7E7F7F857F7F7C7E7C7E7F7F857E87FF
:1011F6007F827F7E7F7F857F8C7F82737E7E7F7FEF
:101206007E7F7C7F82877E7E7F82797F7E857F82DE
:101216007F7C857E857C857C857E827F827F7E82C3
:101226007C8279857C827C7F777E7F89827F827FC4
:101236007C7E8587857F827E827E7F8C7F7E737FA4
:1012460082827E7C7C7F7F7F7E827F7F7F7F877F9F
:10125600857F827C7C7F7F827C827E7F7C82877E8C
:101266007E7C8282827F797E7E8285857E7C7C857D
:1012760082897F7F7F7F7E7F82857F7F7C7E827E65
:10128600827C857C857E7F7C7C7F7F828290857E4A
:10129600737F908E7F7473827E7F8C7F7E707F8259
:1012A600857F7C7C827F827F827E7F7F7F7F7E7F41
:1012B6007F82827C857E857F7F7C7F7E827F827E29
:1012C6007E857F7E7C85827F7F7F7E7E7C877F8515
:1012D6008C7C7E7385827F8E827F73797C7E7F8510
:1012E6007F7F797F7E828585827E857F7E7E8582F1
:1012F6007F7F7F997F7063739D87856F7E947F7CE8
:101306006C7F7F87827F827E7E7C7F7C7F85897FE4
:101316007E7F85857E7C7E85827F7F827E7E7C7FCA
:1013260082857E7F7F7F7F7FBF82503B9BD37950B4
:101336006FA0A26373828C826F7F7F82CC7F5130D5
:101346008CC8735E8CCC824846A497666F8E97795C
:1013560066827F8977B693684BA2C997516CA07F46
:101366005A547EA67F6C9D7F734D90B26A6F739BB5
:10137600827EA09D975A61A0746679B87F265AD559
:10138600D556469DAD5A4D94A97C6A94977363824F
:10139600907C7CA4AB875A737F5D4D73D5B88974F6
:1013A6008E85374899A67066997F6866A6936F7C86
:1013B600897F617EA9947FA0A4997990875446611C
:1013C60073857E8CA69D74665A7C61858CA09487F5
:1013D60082A4C9937F77AB6F2D77778C426A877328
:1013E600746C9B8E777F7F997E9B997F7F7FA97395
:1013F6007C7973685E776F7785998E707F7F6C6C6A
:10140600799B85799DA2996F878C936A5D5E6373DC
:10141600747089879777898E8985637C7F897C6FCD
:10142600897E777E747C637F74707C8C8C6F7C90F5
:101436008E908C85746C898285877F8974827E857F
:101446007F7F7F7F897F7F8C908E7C907C87748E58
:101456007E87797F828785878CA28C8E87998989FA
:101466007F878779826F877C7E7F777E708C7F828D
:10147600877F778297827779947E737F857F7E9048
:10148600876F7E8E876F798E7F705D7C7F7F6A6ABD
:101496009B90937C979482777E828279827E797CF8
:1014A600898974778E8E7466908C85667F90877432
:1014B600798285737F7F877F898589858979898701
:1014C6007E6F79857C79878973737F897E737F7C4C
:1014D6007C7F937F668297825A738E826C6C907F34
:1014E6006C6C7F7F686385827466747F897F777C86
:1014F6007F8C747E829B8C878289828C7E7F7F879D
:101506008779ABB8AF879DB2A48E93A69D897F7C61
:1015160082777F7973706A706F746F6F6F70707790
:10152600898777777379737C7C686668706873746B
:101536007E797974777F8C8C7C6C7E8E736A737CF3
:10154600878C6F54709785667F7F5D6C9397566A1C
:10155600AFDABD99A6D5C5AF97938C97856F4B7CAF
:101566006F6F3751637E737C828EA9B3AFA2A9B623
:1015760094796F7F6A5D445D615E545E6F747073CB
:10158600708787907F777F7F82797F7E7E6A685EAD
:10159600636A63686A7079828297A08E74829B8C74
:1015A6006A6A746C6674CCDAC49DC1DADAA98EA64E
:1015B600A6907C70666F6A633E29667E824B5D7C70
:1015C6009B94A0A6C4DADA997F85A96A463F5A5D3C
:1015D6004844465D70827C747F908E7E7E7E9385C5
:1015E6007363737F6A54515E5A5A66746F74877F49
:1015F6007F899D7E707FA097796F7070738CDACC2F
:10160600B685DADAD79799B2906A5E5E68615E50FF
:101616004B617770636A8C949793A2909B99A2A46E
:10162600C1BD73567F9D63263763664D5879909486
:1016360094826C8290875D5A6C6C63616170666C93
:10164600636A706F73747F6C79829B878787856CFA
:10165600666A74D3DADA9399DADAA66C82A68766B2
:10166600483B3E5A7039284693A0797C97BFB3B65B
:10167600999390A9A6907E7782907951446C74666E
:101686003F6A859982798589947E6F546163665D28
:10169600565E6168616C6C8270746C7C8C90796645
:1016A600669D8970507082A6DADAD07FDADADA7946
:1016B600747F995A46263E3E615044357EA6A685DD
:1016C60099C1D0B8A29B8E8C8987795D637C8C6F1B
:1016D6004B5A7F8973667F97977F7E74877F735691
:1016E600485A63665156666F6F6F7070797C7E706C
:1016F6007F877473878268567E7F7E70DADADA5067
:10170600D3DADA777F7F855650262626566F4435FC
:1017160082C8C9A2ABC9D3C4AB9B74777C8563442A
:1017260058748974616F7F94827774949B8C6C660D
:101736007C776A5151565D5D565E707E6A58666F5B
:101746007C7F8E7F6A7C7F7E636A777C7F97DADA1E
:10175600C850D3DADA73747F795A3926262670731D
:10176600483787D3DAC8B2C4CCCEAB906368747FEF
:1017760051394B7087797977899DA48773799787D3
:101786005E516A7C66544B585E66615D5E73777423
:101796005E79907F5A66A28C664B777F7F7EDADA17
:1017A600DA7FA6DADA87747F6F503E2626263F82D6
:1017B600633F6FD3DAD3BAC8CCBAAB946F48617FB4
:1017C600663237799D876C7090A2AB8C797493855D
:1017D6006350617C68443F506C6F68685A707E85C0
:1017E6006A6368737F747366747F7F7F7FDADADA81
:1017F6007F7FDADAB670705E54482D26262C9994CF
:101806006363BDDADAC8ADB2C1C1935A35516F6FA1
:101816003F305D90B2A9877E93B89D6354778C6FF5
:101826005056616C635E46516A7F6C505A7387737B
:101836006366777374707F7F7F7F85DADADA7FC8B5
:10184600DADA7C666C544B2D2626266FAD7C5A7CE4
:10185600DADADAB6ADB8B3A6682D3561794D374612
:101866008CA9B69B8C90A9B38C5D51707C5A3F3F76
:101876006A7E706156637074685056777E745E61D6
:101886006F737F7C7F7F7FB2DADAD597DADACC6C3A
:101896006661513E2626262887A2796ABADADADAFE
:1018A600B6ADB2AD9B5A262666703E2850AFCCC860
:1018B600998EA2BFA06F3E50666F4D3F516F7E6CF2
:1018C6005A56748777515173746A50616C7C7F7F66
:1018D6007F7F7FDADADA9DA6DADA8C6A6A39392608
:1018E60026262650A9A67F97DADADAC8B3A2A499E3
:1018F6006F26263F705E323F7EDADAC48C8EBDB22A
:101906006F32376A6C54395070857C5D48617C7FD4
:10191600564D5E85795E56687F7F7F7F7FDADADA9D
:10192600A27FDADAB65A5A3942322626264DBAB29A
:101936008585C8DADADAAB909B9D7732263F6A70E6
:101946003B4D9BD3D7AF97999DA6744D44616F517C
:1019560044507079736856636F7451485E7F7E6138
:101966005E6A7F7F7F7FDADADAC47FDADAB6685AB0
:101976003926292626262D93B69B97C8DADADAB3B6
:101986009D8C896C37262C616C4B56ABD5DAB3A08F
:10199600979D97734D46566A6354566C7970615D90
:1019A6005E686A5A5456666C6F74747C7F7FB2DACE
:1019B600DADAB2C8DADA68543E3B353226262682AF
:1019C600B89785BDDADADAB89493897C4826266119
:1019D6007F66507EC1D7D0B3948C90935E374266B3
:1019E60077564D5A748274635666736A544D5866B8
:1019F6006873747F7F7FDADADAC48CDADAB65A5023
:101A060039393026262644ADB39393DADADACCABED
:101A16008C908763282632707E615D8ED0DAC899F5
:101A260089949B70513E636F6351586C77746C5800
:101A36005D6A706A505D5873737373747FDADADAAD
:101A4600CCA2DADAC15A50393F3B2626263B9DAD59
:101A56009387BDDADADAA68E82907C3E26266C7FE4
:101A66006C567EBFDAC89D8589A07F563056737046
:101A760054506A7F856F58587470634B5E666A610E
:101A86006C747F7FB2DADADAA2DADAC15A4B3948F5
:101A96003B2626263B93B29793B8DADADAA68985EF
:101AA60085743726296377797089ADD5C59B7F9074
:101AB6009373544D6170635E566C7C826C5A5D6A9A
:101AC6006A5A54616C6C5E68747F85DADADAC9AD7D
:101AD600DADAB3664430353F2D26264DA2A689872D
:101AE600B6DADADAAB93857F6A372629616F797EB3
:101AF60090AFBFC8AF8C7F7F73584D5E6F636163D5
:101B060073747F7763585E736A615E5A5E66777434
:101B16007074B2DADADAB2B3DADA904639325437B6
:101B26002626267FB8A087A6DADADAAD8E8C947ED2
:101B36004D26264B776C5E87C1D0BDABA9947F74CA
:101B460066464D6679615A6C857F7E685D516A6A24
:101B56006350586666706674747F9BDADADAB2B8D8
:101B6600DADA9051443E422C2626266AADA07F9BA7
:101B7600DADADAB89D93907E5129264458615D776A
:101B8600A4CCD5C8ABA297875E515061685D5E5EF6
:101B96007E878E7066636C745E58566F6F565158AA
:101BA60073747E7FA6DADADAB2CEDADA8751443295
:101BB600422C2626266CAB9D89A9DADADABD9994E1
:101BC600938254262639505D566690CEDAC494A484
:101BD600BFB26F4D5466614D4D5A7E898E74707CCE
:101BE6007F73545D6A736A505A5D665A61747F7F6B
:101BF600A6DADADABAC4DADA9B54483E3F28262651
:101C0600265E979B879BDADADAB8A2A0947E563BCB
:101C16002C3B463E394D90B6C1C8CCD0C4B89D6F5A
:101C2600545A5E463544738587827C7E7C82685E24
:101C36005E746F635E5A6A6A615056737F7F9BDA81
:101C4600DADAB8AFDADAB25A4842483226262656E7
:101C560097977993CCDADAC8A4ABAB8C633E323F64
:101C66004D3F2C3F7097B2B6DADAC8AFC8B2794B9F
:101C76005E543E28465D73798285899D997C616CA8
:101C8600796A5D636F6F66635656565E68747F85C4
:101C9600C8DADADAC4DADAD0775A54513726262681
:101CA600326A7F7374B6DADAC8ABC4C5B279584201
:101CB6004B4D4826264679907CABDADAD7A6A6BDE8
:101CC600AD7744424B51483F4B6C8E878282A0A22F
:101CD60093736F6C79706C616A6A6F58515666635C
:101CE6005A61737F85B2DADADADADAD5DAB25D50BA
:101CF6004D482626263251707F7C9DC1DADAC8BA55
:101D0600BDB89B775D42423F35293556747F87A221
:101D1600BDDAC9DABDBA9979684B4D4B5454545E55
:101D26006C7E8582939B9D93857F82878270666C8D
:101D360070706A68616A6A6C6A6A636F796F5D5609
:101D46007CA6C4DADADAB2B8DADA905174795D2CA4
:101D5600263944585D686694BDC4A29DC5D7B68928
:101D660074797366543F3B506366566A94ABA0B869
:101D7600C4D3AFA29B977461585D5A48565A666C95
:101D86007C8789878E909085937F8E7E8C746F6C0E
:101D960070736C686C7074777C827F7E79736C6309
:101DA6005A687093BDDAD394ABDADA9B5D77977C89
:101DB60046283746505A50517FB2AF8C8CC1DABA9A
:101DC6008C8799937963515861664D445D798C7F10
:101DD6007F94A2AF999D999D937F706F7E7961568E
:101DE600689085746C82898574827E8C82857F90EA
:101DF600979070686F77737074746F6F777F7F7F5B
:101E06007E7F7F827E6F686A7470707FABCCD0896C
:101E16007FC4DACC707CA2945D42505D544D4B4D2C
:101E26006A8C907985A2C9AFA093A6A48C746A73B4
:101E3600707054505D7770637390A2938C9999A6D5
:101E46009097877F89827E6A7073635D5D7077790C
:101E56007C79859093937F938E82737E7E7768706C
:101E66007470776F747079827F877E8574747479E5
:101E76007C747985B2CEA07EABDAC87974A09B79E2
:101E86005D5E6A6F68504B5687796F738EA4978C28
:101E960094A9A69487898C8E7E6F61707763585E4D
:101EA6007C7E77748290908985939D9D8E8990899A
:101EB60082797F77706863686674707E7C858285B8
:101EC600898E8E7F7F7C8779776F77777E77797734
:101ED6007E777779897E77747F8577777F7E85A60B
:101EE600C1897FADD7AD7393AD947468737374660F
:101EF6005446667F6C5D63939489859DA49B908E02
:101F06008C939082777E7970636F6C7E686C6C7F41
:101F1600877F7F8E999D8E7F94948E797985777051
:101F26005E6C6C7370777C827F827E8987897C7F0A
:101F3600828E827C6F77737C79827C73777F8779D8
:101F46007E797E7487896F6C87937F7CB3B2897341
:101F5600ADAFA07F9D93827E7F74737C7056667C46
:101F66007E616A7E7E797C908C899793948993872B
:101F76007F797F7F7E7C777C746C6C737F7C7E7FC1
:101F860082827F93908C85878E7F7C77857F7C7419
:101F960070746A7973827E7F777F85877F857F7F7E
:101FA6007C7F797F7C827479777F7E7C7E7C7E796C
:101FB6007F877974797F7F778E99937F8CA29397A9
:101FC60089A6858589939079796F7F797E707379F3
:101FD6006C6F6F8C827F737F827F908E8285828EFC
:101FE6007F7F877F7F7F7F7C77797F747F737E702B
:091FF600938E7F7E898E7F7900B5
:020000040020DA
:08000000FFFFFFFFFFFFFFFF00
:020000040030CA
:0E000000FF050C1EFF0081FF03C003E003405C
:00000001FF
