:0600000000F011EF00F01A
:1000080024829EA208D022502310D8B403D02206FE
:10001800D8A023069E9224921100A8EF02F00D6E3C
:10002800000E0F6E000E0E6E000EC26E14D0C2804F
:1000380030D0050E09D0090E07D00D0E05D0110ECF
:1000480003D0150E01D0190EC21223D0000E0A6E6D
:10005800000E096E12000D500B6E0C6A0C50000A4F
:10006800D8A4F4D70B50010AD8B4E1D7030AD8B4FE
:10007800E0D7060AD8B4DFD71C0AD8B4DED7300ACE
:10008800D8B4DDD7180AD8B4DCD7080AD8B4DBD777
:10009800DDD71A0E0B6EF80EE82EFED70B2EFCD706
:1000A80000D0C28209D0C4500C6E0B6AC3500B2416
:1000B8000E6E000E0C200F6EC2B2F5D7340E0B6E0A
:1000C800F20EE82EFED70B2EFCD7C282C2B2FED7A4
:1000D800C4500C6E0B6AC3500B24106E000E0C201B
:1000E800116E10500E24016E11500F20026E000E7A
:1000F800046E020E036EC8EC01F001C009F002C0E4
:100108000AF012008A84020E196E040E186EBA0ED6
:10011800E82EFED7182EFCD7192EFAD700D05EECA1
:1001280002F012C01AF013C01BF01BBE06D01B5001
:1001380023E1030E1A5CD8B01FD08A841A0E186EF9
:10014800F80EE82EFED7182EFCD700D01A0E186E1F
:10015800F80EE82EFED7182EFCD700D08A94020E8F
:10016800196E040E186EBA0EE82EFED7182EFCD79C
:10017800192EFAD700D012008A84020E196E040EC6
:10018800186EBA0EE82EFED7182EFCD7192EFAD7FD
:1001980000D0020E196E040E186EBA0EE82EFED7A5
:1001A800182EFCD7192EFAD700D08A94060E196E8D
:1001B800130E186EAE0EE82EFED7182EFCD7192E89
:1001C800FAD712008A948A90898C040E026E0C0E5B
:1001D800016E340EE82EFED7012EFCD7022EFAD778
:1001E800899C060E026E130E016EAE0EE82EFED727
:1001F800012EFCD7022EFAD7898C040E026E0C0E43
:10020800016E340EE82EFED7012EFCD7022EFAD747
:10021800899C060E026E130E016EAE0EE82EFED7F6
:10022800012EFCD7022EFAD7898C040E026E0C0E12
:10023800016E340EE82EFED7012EFCD7022EFAD717
:10024800899C8A90060E026E130E016EAE0EE82E81
:10025800FED7012EFCD7022EFAD7000E216E000E13
:10026800206E12008A94899C8A80040E026E0C0EFD
:10027800016E340EE82EFED7012EFCD7022EFAD7D7
:100288008A90060E026E130E016EAE0EE82EFED791
:10029800012EFCD7022EFAD78A80040E026E0C0EAD
:1002A800016E340EE82EFED7012EFCD7022EFAD7A7
:1002B8008A90060E026E130E016EAE0EE82EFED761
:1002C800012EFCD7022EFAD78A80040E026E0C0E7D
:1002D800016E340EE82EFED7012EFCD7022EFAD777
:1002E8008A90899C060E026E130E016EAE0EE82EE1
:1002F800FED7012EFCD7022EFAD7000E216E000E73
:10030800206E120099EC02F0899C8A908A94040E5F
:1003180013EC00F009C01CF00AC01DF0380E13ECF5
:1003280000F009C01EF00AC01FF01FBE0AD0590E07
:100338001E5C020E1F58D8A004D039EC02F011EF51
:1003480000F01DBE06D01D5008E10F0E1C5CD8B091
:1003580004D086EC00F011EF00F020042110D8A49E
:1003680003D0E6EC00F0CED7020E20182110D8A456
:1003780003D036EC01F0C6D7899C8A908A94000E87
:10038800216E000E206EBED7000E066E04AE06D09B
:10039800036C041ED8B0042A010E066E02AE06D005
:1003A800016C021ED8B0022A010E061A000E086E51
:1003B800000E076E03500410D8B41CD0010E056E51
:1003C80004D0D89003360436052A04AEFAD7D8905C
:1003D800073608360350015C04500258D8A005D0EF
:1003E8000350015E0450025A0780D8900432033249
:1003F800052EEDD70650D8B404D0076C081ED8B027
:10040800082A07C001F008C002F0120088EC02F0C8
:10041800000E0A6E000E096E18D009500324076EEC
:100428000A500420086E07C0F6FF08C0F7FF08004E
:10043800F55073EC02F0000E236E010E226E22506E
:100448002310D8A4FCD7094A0A2A0550095C0A5087
:10045800800A076E0650800A0758D8A0DED7F29C9B
:10046800F29E9E929D92CA9412008A80898C230ED5
:10047800036E150E046E0A0E066EDB0E056E0AEC90
:1004880002F0040E0C6E0C0E0B6E340EE82EFED726
:100498000B2EFCD70C2EFAD78A90899C060E0C6E70
:1004A800130E0B6EAE0EE82EFED70B2EFCD70C2EBD
:1004B800FAD71200020E13EC00F009C014F00AC0BB
:1004C80015F0010E13EC00F009C016F00AC017F081
:1004D8001650145C126E17501558136E1200026EE7
:1004E8000240E8423F0BBE6E02C001F0D8900132D4
:1004F8000130D8A002D0BD8A01D0BD9A02A002D096
:10050800BD881200BD981200F29E000ECA6EB50E8C
:10051800CB6E9E929D82CA840C0EBD6E000EBE6E7E
:10052800BD9ABD98F28CF28E1200700ED36E000E3A
:10053800D56E000EF26E100EC16E8F0EC06EAF0E2D
:10054800926EF20E936E1200236A226A216A206A62
:0E05580024902492000EF86E000186EF01F050
:101522000000FF0000000000FF00FFFFFFFFFFFFC1
:10153200FFFFFFFFFF000000FF00FFFFFFFFFFFFB5
:10154200FF00FFFFFF00FFFF000000FF000000FFA1
:10155200FFFF00FFFFFF00FFFFFF00FFFFFF00FF95
:10156200FFFF00FFFFFFFFFFFF00FFFFFFFFFFFF87
:10157200FFFFFFFFFFFF0000FFFF0000FFFE010172
:10158200FDFC0305FBF9010AFFF4FD0C03F5F90666
:1015920009FCF5FF0C02F3FB0906FAF9010602F950
:1015A200FD0202FFFDFE0302FDFF01FEFE0200FD41
:1015B200000200FDFF0101FDFD0102FFFEFF000030
:1015C200FFFF000000FFFFFF0000FFFE0001FFFE23
:1015D2000001FFFEFF0000FFFF0000FFFFFFFF0012
:1015E20000FFFF0000FFFF000000FF000000FFFF00
:1015F200FFFF0000FF00000000FFFF0000FF0000EF
:10160200FFFFFF00FFFF0000FF000000FFFFFF00E1
:1016120000FFFF000000FFFF0000FFFF0000FFFFD0
:10162200FF0000FFFF0000FFFF0000FFFF0000FFC0
:10163200FFFF00FFFFFF0000FF000000FFFF0000B0
:10164200FFFF0000FFFFFF0000FFFF0000FFFF00A1
:1016520000FFFFFF00FFFF000000FF00000000008E
:101662000000FFFFFF0000FFFF000000000000007D
:1016720000FFFF000000FFFF000000FF000000FF6E
:10168200FF0000FFFF000000FFFF0000000000005D
:101692000000FF000000FFFF00000000000000004B
:1016A200000000FFFFFFFFFFFF00FF00000000003F
:1016B200000000FFFFFF00FFFFFF0000FFFF000030
:1016C20000FFFFFFFFFFFFFFFFFFFFFFFF00000024
:1016D20000000000FFFFFFFFFFFFFFFF0000000010
:1016E2000000FFFFFFFFFFFFFFFFFFFFFF00000003
:1016F200000000FFFFFFFFFFFFFFFFFF00000000F1
:10170200000000000000FF00FF00000000000000D9
:101712000000000000000000FFFFFFFF00FF0000CC
:101722000000000000FFFFFFFFFFFFFFFFFFFFFFC2
:10173200FFFFFFFFFFFFFFFFFFFFFFFFFFFFFFFFB7
:10174200FFFFFFFFFFFFFFFFFFFFFFFFFFFFFF00A6
:101752000000000000000000FFFFFFFFFFFFFFFF8F
:1017620000000000000000FFFFFFFFFFFFFFFFFF80
:101772000000000000000000FFFFFFFFFFFFFFFF6F
:10178200000000000000FFFFFFFFFFFFFFFFFF0060
:1017920000000000000000000000FFFFFFFFFF004C
:1017A2000000000000000000FFFFFFFFFFFFFFFF3F
:1017B200000000000000000000FFFFFFFFFFFFFF2E
:1017C200FF0000000000000000FF00FFFFFFFFFF1E
:1017D200000000000000000000000000FFFFFFFF0B
:1017E2000000000000000000000000FFFFFFFFFFFC
:1017F200FFFFFF000000000000FF00FFFFFFFFFFF0
:10180200FFFFFF000000000000000000FFFFFFFFDD
:10181200FF0000000000000000000000FF00FFFFCA
:10182200FFFFFF00FF00FF00FFFFFFFFFFFFFFFFC3
:10183200FFFFFFFFFFFFFFFFFFFFFFFFFFFFFFFFB6
:10184200FFFFFFFFFFFFFFFFFFFFFFFFFFFFFFFFA6
:10185200FFFFFFFFFF000000000000000000FF008C
:10186200FF00FFFFFFFF00000000000000FFFFFF7E
:10187200FFFFFFFFFFFFFFFFFF00FFFF00FFFFFF74
:10188200FFFFFFFFFFFFFFFFFFFF00FFFFFFFFFF65
:10189200FFFFFFFFFFFFFFFFFF000000000000FF50
:1018A20000FFFFFFFFFF00000000000000FF00FF3D
:1018B20000FFFFFFFFFFFFFF00000000000000FF2E
:1018C20000FFFFFFFFFFFFFF00000000000000001D
:1018D20000FFFFFFFFFFFFFF00000000000000000D
:1018E200FF00FFFFFFFFFFFFFF00FF0000000000FF
:1018F20000FFFFFFFF00FF00FF00FF0000000000ED
:10190200000000FFFFFFFFFFFFFFFFFF00000000DE
:101912000000FF00FF00FFFF0000000000000000C9
:101922000000000000FFFF000000000000000000B7
:1019320000000000000000000000000000000000A5
:101942000000000000000000000000000000000095
:101952000000000000000000000000000000000085
:101962000000000000000000000000000000000075
:101972000000000000000000000000000000000065
:1019820000000000000000FFFFFFFF00FF0000005A
:1019920000000000FF00FFFFFFFFFF00000000004B
:1019A200000000000000FFFFFFFF00FFFF0000003B
:1019B200000000000000000000FF00FF00FF000028
:1019C200000000000000FF00FFFFFFFFFFFF00001C
:1019D2000000000000FF00FFFFFFFFFFFFFFFFFF0F
:1019E20000000000000000FFFFFFFFFFFFFFFF00FD
:1019F2000000000000000000FFFFFFFFFFFFFFFFED
:101A0200FFFFFFFFFFFFFFFFFFFFFFFFFFFFFFFFE4
:101A1200FFFFFFFFFFFFFFFFFFFFFFFFFFFFFFFFD4
:101A2200FFFFFFFFFFFFFFFFFFFFFFFFFFFFFFFFC4
:101A3200FFFFFFFFFFFFFFFFFFFFFFFFFFFFFFFFB4
:101A4200FFFFFFFFFF00FFFFFFFFFFFFFFFFFFFFA3
:101A5200FFFFFF0000000000FFFFFFFFFFFFFFFF8F
:101A620000FF00FF000000FFFFFFFFFFFFFFFFFF7F
:101A7200FFFFFF0000000000000000FFFFFFFFFF6C
:101A8200FF00000000000000000000FF0000000056
:101A9200000000000000000000000000FFFFFFFF48
:101AA200FFFF00000000000000000000FFFFFFFF3A
:101AB200FFFFFFFFFF000000000000FFFFFFFFFF2E
:101AC200FFFFFFFFFF000000000000FFFFFFFFFF1E
:101AD200FFFFFFFFFFFFFFFFFFFFFFFFFFFFFFFF14
:101AE200FFFFFFFFFFFFFF00000000FFFFFFFFFF00
:101AF200FFFFFFFFFF000000000000000000FFFFEB
:101B0200FF0000FF000000000000000000000000D5
:101B120000FF00FFFFFF00000000000000FFFFFFCA
:101B2200FFFFFFFFFFFFFFFFFFFFFFFFFFFFFFFFC3
:101B3200FFFFFFFFFFFFFFFFFFFFFF00FF00FFFFB1
:101B4200FFFFFFFFFFFFFFFF00000000000000FF9C
:101B5200FFFFFFFFFFFFFFFFFFFFFFFFFFFFFFFF93
:101B6200FFFFFFFFFFFFFFFFFFFF00FF000000007E
:101B7200FF00FFFFFFFFFFFF00000000000000006A
:101B82000000000000000000000000000000000053
:101B9200FFFFFFFFFFFFFFFF00000000000000004B
:101BA2000000000000000000000000000000000033
:101BB2000000000000000000000000000000000023
:101BC2000000000000000000000000000000000013
:101BD2000000FFFFFFFFFFFFFFFFFFFFFFFFFF0010
:101BE200FFFFFFFFFFFFFFFFFFFFFFFFFFFF000001
:101BF200FFFFFFFFFFFFFFFFFFFF000000000000ED
:101C020000000000000000000000000000000000D2
:101C1200000000000000000000FF000000000000C3
:101C22000000000000FFFFFFFFFFFF0000000000B8
:101C32000000000000FFFFFFFFFFFFFFFF00FF00AB
:101C4200FF00FFFFFFFFFFFFFFFFFFFFFFFFFFFFA1
:101C52000000FF00FFFFFFFFFFFFFFFFFF0000008C
:101C6200000000FFFFFFFFFFFFFFFFFFFFFFFFFF7F
:101C7200FF00FF00FFFF00FF00FFFFFFFFFFFF006D
:101C8200000000000000000000000000FF00FF0054
:101C920000000000000000000000FFFFFF00000045
:101CA2000000000000000000000000FF00FF000034
:101CB20000000000000000000000FFFFFFFFFF0027
:101CC200FF0000000000000000FFFFFFFFFFFF0019
:101CD20000000000000000000000FF00FFFFFFFF07
:101CE200FFFF00FFFFFF00FFFFFFFFFFFFFFFFFF00
:101CF2000000FF000000000000FFFFFFFFFFFFFFEA
:101D0200FFFFFF00000000000000FFFFFFFFFFFFDA
:101D1200FFFFFFFF0000000000FFFFFFFFFFFFFFCC
:101D2200FFFFFF000000000000FFFFFFFFFFFFFFBB
:101D3200FFFFFFFFFF0000000000000000FF0000A7
:101D42000000000000000000000000000000FFFF93
:101D5200FF00FF0000000000000000FFFFFFFFFF88
:101D6200FFFF000000000000000000000000000073
:101D72000000000000000000000000000000FFFF63
:101D8200FFFFFFFFFFFF000000000000FFFFFFFF5B
:101D9200FFFFFFFFFF0000000000000000FFFFFF49
:101DA200FFFFFFFF000000000000FF00FFFFFFFF3A
:101DB200FFFFFFFFFFFFFFFFFFFFFF00FF00FFFF2F
:101DC200FF00FFFFFF00FF00FF0000000000000017
:101DD20000FFFFFFFFFFFF00000000FFFFFFFFFF0C
:101DE200FFFFFFFFFFFFFFFFFF00000000FFFFFFFD
:101DF200FFFFFFFFFFFFFFFFFFFFFFFFFF0000FFEF
:101E020000FFFFFF000000000000000000000000D3
:101E120000000000000000000000000000000000C0
:101E22000000FF00FFFFFF000000000000000000B4
:101E3200FFFFFFFFFFFFFFFFFFFF000000000000AA
:101E420000FF000000000000000000000000000091
:101E52000000000000FF00FF00FF00000000000083
:101E62000000FF00FFFFFFFFFF0000000000000076
:101E7200000000000000000000000000FF00000061
:101E8200FF00FFFFFFFFFFFFFFFFFFFFFF0000005C
:101E92000000FFFF00FF000000FF00000000000044
:101EA200FFFFFFFFFFFFFFFFFFFFFFFFFFFFFFFF40
:101EB20000FFFFFFFFFFFFFFFFFFFFFFFFFF00002D
:101EC20000000000FFFFFFFFFFFFFFFFFF00000019
:101ED20000FF00FFFFFFFFFFFFFFFFFFFFFF00000C
:101EE20000000000FF0000FFFFFFFFFFFFFF0000F8
:101EF2000000000000FFFFFFFFFFFFFFFFFFFFFFEB
:101F0200FFFFFFFFFFFFFFFFFFFFFFFFFFFFFFFFDF
:101F1200FFFFFF00FFFFFFFFFFFFFFFFFFFFFF00CD
:101F22000000000000FFFFFFFFFFFFFFFFFFFFFFBA
:101F3200FFFFFFFFFFFFFFFFFFFFFFFFFFFF00FFAE
:101F420000000000000000000000FFFFFFFFFFFF95
:101F5200000000000000FFFFFFFFFFFFFFFFFFFF89
:101F6200FFFFFFFF00FFFFFF00FFFFFFFFFFFFFF7D
:101F7200FFFFFFFFFF0000FFFF000000FE0001FE69
:101F8200FC0105FEFAFD0705F8F9040AFDF6FC0757
:101F920007FAF8010800F9FE0303FEFCFE0302FD46
:101FA200FD0102FFFFFFFF0001FFFD000101FEFD39
:101FB2000103FFFD000100FEFF0100FFFF00000022
:101FC200FFFFFF0100FFFE000100FEFF0100FFFF17
:101FD2000000FF00FFFF0000FFFF0000FFFF000006
:101FE20000FFFF0000FF0000FFFF0000FF00FFFFF7
:0D1FF200000000FFFF0000FFFFFF000000E7
:020000040020DA
:08000000FFFFFFFFFFFFFFFF00
:020000040030CA
:0E000000FF880C1EFF0081FF03C003E00340D9
:00000001FF
