:0600000000F013EF00F018
:060008002B82D4EF02F090
:100018002B80E0CF01F001C0E0FF2B901000BEEF75
:1000280002F00E6E000E126E000E116EE30EC26E1E
:100038003CEF00F0C25065EF00F0C28465EF00F0BD
:10004800C28665EF00F00C0EC21265EF00F0C288A0
:1000580065EF00F0140EC21265EF00F0180EC21220
:1000680065EF00F0000E0B6E000E0A6EA6EF00F0B2
:100078000E500C6E0D6A0D50000AD8B446EF00F011
:1000880036EF00F00C50010AD8B41EEF00F0030A56
:10009800D8B421EF00F0060AD8B424EF00F01C0A07
:1000A800D8B427EF00F0300AD8B42BEF00F0180AC4
:1000B800D8B42EEF00F0080AD8B432EF00F036EFCB
:1000C80000F00D0E0C6EFC0EE82EFED70C2EFCD7A1
:1000D800C282C2B272EF00F074EF00F06DEF00F070
:1000E800C4500D6E0C6AC3500C240F6E000E0D2008
:1000F800106E1A0E0C6EF80EE82EFED70C2EFCD7DA
:1001080000D0C282C2B28BEF00F08DEF00F086EF14
:1001180000F0C4500D6E0C6AC3500C24116E000E12
:100128000D20126E11500F24026E12501020036E13
:10013800000E056E020E046EA7EC00F002C00AF075
:1001480003C00BF01200000E076E05BEB0EF00F002
:10015800AEEF00F0B6EF00F0046C051ED8B0052A2B
:10016800010E076E03BEBDEF00F0BBEF00F0C3EF5A
:1001780000F0026C031ED8B0032A010E071A000E05
:10018800096E000E086E04500510D8B4CEEF00F0CA
:10019800D0EF00F0F8EF00F0010E066ED8EF00F097
:1001A800D89004360536062A05AEDDEF00F0DFEFFD
:1001B80000F0D4EF00F0D890083609360450025CFD
:1001C80005500358D8A0EBEF00F0EDEF00F0F2EF88
:1001D80000F00450025E0550035A0880D89005329A
:1001E8000432062EDFEF00F00750D8B4FEEF00F01F
:1001F80000EF01F004EF01F0086C091ED8B0092ADD
:1002080008C002F009C003F01200CBEC02F080989D
:100218008198809C280E15EC00F00AC01DF00BC0D8
:100228001EF0300E15EC00F00AC01FF00BC020F0D5
:1002380020BE28EF01F0205009E19C0E1F5CD8A0D9
:1002480028EF01F02AEF01F02EEF01F0AAEC02F0FE
:100258005EEF01F01EBE3CEF01F01E5007E10A0EF2
:100268001D5CD8B03AEF01F03CEF01F040EF01F02F
:10027800B1EC01F00BEF01F02A04D8A446EF01F02D
:1002880048EF01F04CEF01F001EC02F00BEF01F048
:100298002904D8A452EF01F054EF01F058EF01F00F
:1002A8004BEC02F00BEF01F0000E296E000E2A6EE7
:1002B8000BEF01F013EF00F0040E15EC00F00AC08C
:1002C80027F00BC028F0180E15EC00F00AC025F036
:1002D8000BC026F028BE7AEF01F0285009E10B0E7A
:1002E800275CD8A07AEF01F07CEF01F08EEF01F0E7
:1002F80028BE8AEF01F0285007E10A0E275CD8B023
:1003080088EF01F08AEF01F08EEF01F0010E2A6EFE
:10031800B0EF01F028BE9CEF01F0285007E10A0E6B
:10032800275CD8B09AEF01F09CEF01F0AEEF01F036
:1003380028BEA8EF01F0285009E10B0E275CD8A0D1
:10034800A8EF01F0AAEF01F0AEEF01F0010E296E5F
:10035800B0EF01F0000E296E1200808C820E196E2B
:10036800DE0EE82EFED7192EFCD795EC02F013C04E
:100378001BF014C01CF01CBECDEF01F01C5007E1AF
:10038800050E1B5CD8B0CBEF01F0CDEF01F0E7EF25
:1003980001F0808C60EC01F0410E196EEE0EE82E33
:1003A800FED7192EFCD700D0809C020E1A6E040EC0
:1003B800196EBA0EE82EFED7192EFCD71A2EFAD7C8
:1003C80000D000EF02F0808C60EC01F0820E196E14
:1003D800DE0EE82EFED7192EFCD7809C030E1A6E6F
:1003E800080E196E770EE82EFED7192EFCD71A2E96
:1003F800FAD700F0E5EF01F012008088020E036ED4
:10040800860E026E990EE82EFED7022EFCD7032E1A
:10041800FAD700F08098030E036E8A0E026E560E0D
:10042800E82EFED7022EFCD7032EFAD78088020EBC
:10043800036E860E026E990EE82EFED7022EFCD7AA
:10044800032EFAD700F08098030E036E8A0E026E10
:10045800560EE82EFED7022EFCD7032EFAD7808838
:10046800020E036E860E026E990EE82EFED7022E3D
:10047800FCD7032EFAD700F08098820E026EDE0EAB
:10048800E82EFED7022EFCD7000E2A6E12008188B5
:10049800020E036E860E026E990EE82EFED7022E0D
:1004A800FCD7032EFAD700F08198030E036E8A0E4C
:1004B800026E560EE82EFED7022EFCD7032EFAD770
:1004C8008188020E036E860E026E990EE82EFED704
:1004D800022EFCD7032EFAD700F08198030E036E84
:1004E8008A0E026E560EE82EFED7022EFCD7032E79
:1004F800FAD78188020E036E860E026E990EE82ED8
:10050800FED7022EFCD7032EFAD700F08198820E70
:10051800026EDE0EE82EFED7022EFCD7000E296EE4
:100528001200010E15EC00F00AC015F00BC016F011
:10053800020E15EC00F00AC017F00BC018F01750A7
:10054800155C136E18501658146E12009C0E026E2D
:10055800D70EE82EFED7022EFCD700F0030E036E4E
:100568008A0E026E560EE82EFED7022EFCD7032EF8
:10057800FAD7120000EE21F00A0EEE6AE806FDE155
:100588002B902B92000EF86E000109EF01F0000E7F
:10059800C16E000E926E000E936E0F0EC06E1200AA
:0405A8002B92110081
:020000040020DA
:08000000FFFFFFFFFFFFFFFF00
:020000040030CA
:0E000000FFC80F1EFF0085FF03C003E0034092
:00000001FF
