:0600000000F013EF00F018
:060008002C82D3EF02F090
:100018002C80E0CF01F001C0E0FF2C901000BCEF75
:1000280002F00E6E000E126E000E116EF30EC21666
:1000380031EF00F0C2504EEF00F0C2844EEF00F0F6
:10004800C2864EEF00F00C0EC2124EEF00F0000E0A
:100058000B6E000E0A6E8FEF00F00E500C6E0D6ADC
:100068000D50000AD8B43BEF00F02BEF00F00C5015
:10007800010AD8B41EEF00F0030AD8B421EF00F04B
:10008800060AD8B424EF00F01C0AD8B427EF00F011
:100098002BEF00F00D0E0C6EFC0EE82EFED70C2E8A
:1000A800FCD7C282C2B25BEF00F05DEF00F056EF02
:1000B80000F0C4500D6E0C6AC3500C240F6E000E75
:1000C8000D20106E1A0E0C6EF80EE82EFED70C2EB0
:1000D800FCD700D0C282C2B274EF00F076EF00F015
:1000E8006FEF00F0C4500D6E0C6AC3500C24116EF3
:1000F800000E0D20126E11500F24026E12501020A7
:10010800036E000E056E020E046EF4EC00F002C0E1
:100118000AF003C00BF01200000E246E000E236ECE
:10012800000E1E6E000E1D6E000E206E000E1F6E5D
:1001380080988196809E700EC9EC02F0300E15EC06
:1001480000F00AC021F00BC022F0600E15EC00F0A0
:100158000AC023F00BC024F024BEBCEF00F02450EA
:1001680009E19C0E235CD8A0BCEF00F0BEEF00F0C4
:10017800C2EF00F0A8EC02F0F2EF00F022BED0EFE0
:1001880000F0225007E10A0E215CD8B0CEEF00F053
:10019800D0EF00F0D4EF00F0ACEC01F09CEF00F0F1
:1001A8002B04D8A4DAEF00F0DCEF00F0E0EF00F069
:1001B800FCEC01F09CEF00F02A04D8A4E6EF00F074
:1001C800E8EF00F0ECEF00F046EC02F09CEF00F0F6
:1001D800000E2A6E000E2B6E9CEF00F013EF00F05D
:1001E800000E076E05BEFDEF00F0FBEF00F003EF19
:1001F80001F0046C051ED8B0052A010E076E03BE77
:100208000AEF01F008EF01F010EF01F0026C031E95
:10021800D8B0032A010E071A000E096E000E086EE8
:1002280004500510D8B41BEF01F01DEF01F045EFA5
:1002380001F0010E066E25EF01F0D8900436053660
:10024800062A05AE2AEF01F02CEF01F021EF01F0AC
:10025800D890083609360450025C05500358D8A0D7
:1002680038EF01F03AEF01F03FEF01F00450025E81
:100278000550035A0880D89005320432062E2CEF18
:1002880001F00750D8B44BEF01F04DEF01F051EFFA
:1002980001F0086C091ED8B0092A08C002F009C08C
:1002A80003F012001C0EC9EC02F0040E15EC00F06D
:1002B8000AC027F00BC028F0180E15EC00F00AC091
:1002C80025F00BC026F028BE73EF01F0285009E195
:1002D8000B0E275CD8A073EF01F075EF01F087EFE4
:1002E80001F028BE83EF01F0285007E10A0E275CD1
:1002F800D8B081EF01F083EF01F087EF01F0010E34
:100308002B6EABEF01F028BE95EF01F0285007E106
:100318000A0E275CD8B093EF01F095EF01F0A7EF34
:1003280001F028BEA1EF01F0285009E10B0E275C6F
:10033800D8A0A1EF01F0A3EF01F0A7EF01F0010EA3
:100348002A6EABEF01F0000E2B6E000E2A6E120023
:10035800808E820E196EDE0EE82EFED7192EFCD77F
:1003680090EC02F013C01BF014C01CF01CBEC8EFC8
:1003780001F01C5007E1050E1B5CD8B0C6EF01F078
:10038800C8EF01F0E2EF01F0808E56EC01F0410E6B
:10039800196EEE0EE82EFED7192EFCD700D0809EDF
:1003A800020E1A6E040E196EBA0EE82EFED7192E1A
:1003B800FCD71A2EFAD700D0FBEF01F0808E56EC4E
:1003C80001F0820E196EDE0EE82EFED7192EFCD72C
:1003D800809E030E1A6E080E196E770EE82EFED751
:1003E800192EFCD71A2EFAD700F0E0EF01F0120010
:1003F8008088020E036E860E026E990EE82EFED7D6
:10040800022EFCD7032EFAD700F08098030E036E55
:100418008A0E026E560EE82EFED7022EFCD7032E49
:10042800FAD78088020E036E860E026E990EE82EA9
:10043800FED7022EFCD7032EFAD700F08098030EC1
:10044800036E8A0E026E560EE82EFED7022EFCD7D9
:10045800032EFAD78088020E036E860E026E990E5E
:10046800E82EFED7022EFCD7032EFAD700F080988C
:10047800820E026EDE0EE82EFED7022EFCD7000E8C
:100488002B6E12008186020E036E860E026E990E86
:10049800E82EFED7022EFCD7032EFAD700F081965D
:1004A800030E036E8A0E026E560EE82EFED7022E3B
:1004B800FCD7032EFAD78186020E036E860E026ED3
:1004C800990EE82EFED7022EFCD7032EFAD700F09D
:1004D8008196030E036E8A0E026E560EE82EFED724
:1004E800022EFCD7032EFAD78186020E036E860EE3
:1004F800026E990EE82EFED7022EFCD7032EFAD7ED
:1005080000F08196820E026EDE0EE82EFED7022ED5
:10051800FCD7000E2A6E1200030EC9EC02F0010E81
:1005280015EC00F00AC015F00BC016F0020E15EC21
:1005380000F00AC017F00BC018F01750155C136EC6
:1005480018501658146E12009C0E026ED70EE82E24
:10055800FED7022EFCD700F0030E036E8A0E026E41
:10056800560EE82EFED7022EFCD7032EFAD712001D
:1005780000EE25F0070EEE6AE806FDE12C902C92BD
:10058800000EF86E000190EF00F0026E000EC16ED2
:10059800000EC26E0250C212070EC06E12002C92DC
:0205A800110040
:020000040020DA
:08000000FFFFFFFFFFFFFFFF00
:020000040030CA
:0E000000FFC80F1EFF0085FF03C003E0034092
:00000001FF
